:030000000202B544
:0C02B500787FE4F6D8FD7581650202FC3C
:1002240077726F6E672070617373776F72642120C9
:100234002020202020202020004C6F636B696E67F3
:100244002E2E2E2E2E2E2E2E007061737365642199
:1002540020202020202020202020202020202000BA
:1002640052656C6F6164205375636365737366755F
:100274006C6C7921202020202020002000202020C8
:10028400202020202020202020202020202020206A
:10029400200053657474696E672E2E2E2E2E2E2028
:1002A4002020202020202020202020202020002A60
:0102B4000049
:1003B60002120000020C00001E3A000200000002B9
:1003C6000005000000000000000000000000000022
:1003D60000000000000000001E1C000000000000DD
:1003E6000000000000000000000000000000000007
:1003F6000000000000000000021A000002180000C1
:10040600021400000216000002080000021000009C
:08041600020E2AF8020A2AF87E
:10061A00756000756132E5611561AE607002156042
:10062A004E6014D2A37F147E0012054BC2A37F141E
:07063A007E0012054B80DF7A
:010641002296
:1007CA00758901758CFC758A18D28CD2A9D2AF2290
:03000B000204816B
:10048100C0E0C0F0C083C082C0D075D000C000C041
:1004910001C002C003C004C005C006C0070513E5C2
:1004A1001370020512B46F11E512B40A0C750C0039
:1004B100750D001206AC12061AD007D006D005D071
:1004C10004D003D002D001D000D0D0D082D083D0CC
:0404D100F0D0E03255
:1006CB00D3EF9400EE940040147D6E7C00ED1D7012
:0D06DB00011CED4C70F7EF1F70E61E80E370
:0106E80022EF
:10034100E4FBA8037401088002C333D8FCF4F580F0
:10035100E4FA7E007410A802088005C333CE33CEC0
:10036100D8F9FFAD80EF5D703C7F14FE1206CB7EA5
:10037100007410A802088005C333CE33CED8F9FF2C
:10038100AD80EF5D701F7E007410A802088005C368
:1003910033CE33CED8F9FFAD80EF5D60E9EA25E0D9
:1003A10025E02BFF220ABA04A90BEB6404709375B4
:0403B100800F7FFF3B
:0103B5002225
:08000300E4F512F5130207CA2F
:10066700E4FFFEEF25E0241CF8E4F608F6EF25E0AA
:10067700243AF8E4F608F60FBF00010EEF640F4EB8
:0206870070E120
:01068900224E
:05056B00E4F55BF55C06
:10057000E55C25E0241CF808E6F55DFDAF5CAE5BAC
:060580001205F11207EA6A
:10058600055CE55C7002055BC3940FE55B94004077
:01059600D98B
:010597002241
:05059800E4F563F564C9
:10059D00E56425E0243AF808E6F565FDAF64AE6341
:0605AD001205F11207EA3D
:1005B3000564E56470020563C3940FE5639400402A
:0105C300D95E
:0105C4002214
:0505C500E4F559F55AB0
:1005CA00AF5AAE591204D58F5BE55A25E0243AF8A2
:0505DA00760008A607F1
:1005DF00055AE55A70020559C3940FE55994004026
:0105EF00DA31
:0105F00022E8
:10000E00E4F559F55AE517451660030200C4F55993
:10001E00F55AAF5AEF25E0243AF8E6FC08E6FDEF74
:10002E0025E0241CF8E6FE08E66D7002EE6C600713
:10003E00E4F514F5158014751400751501055AE5CF
:10004E005A70020559640F455970C7E5154514706D
:10005E00430519E51970020518E4FD7F0112072307
:10006E007BFF7A027924120642E519640345187063
:10007E0023F50C750D01FD7F011207237BFF7A021C
:10008E00793D12064212061A120003E4F51AF51B08
:10009E00F518F519E51564014514701AF518F519DA
:1000AE00FD7F011207237BFF7A02794D120642E48F
:1000BE00F51AF51BD2A0E517640145167057F559D0
:1000CE00F55AAF5AEF25E0241CF8E6FC08E6FDEFE2
:1000DE0025E0243AF8A60408A605055AE55A70024A
:1000EE000559640F455970DAE4F516F517F514F550
:1000FE001512056BE4FD7F011207237BFF7A02794F
:10010E00641206427F887E1312054B1206ACC2A003
:05011E00E4F51AF51BD9
:0101230022B9
:1006E900E51B25E0241AF8E4F608F6E51B14FDE4F9
:0D06F900FF1207237BFF7A02797F02064281
:10050900E515640145147025FDFF1207237BFF7A69
:10051900027981120642E4FD7F011207237BFF7AEB
:1005290002799612064275160075170122E4F5162E
:03053900F5172291
:10041F00E4F559F55AE509640145087025C3E55A15
:10042F00951BE559951A501AAD5AE4FF1207237B15
:10043F00FF7A0279B3120642055AE55A70DF055961
:10044F0080DBE50945087029C3E55A951BE55995E9
:10045F001A501EAD5AE4FF120723E55A25E0241C5B
:10046F00F808E6FF1207DA055AE55A70DB055980DE
:01047F00D7A5
:010480002259
:10078E00E511640145107003120826E5114510703D
:05079E000312082122F6
:0B0124001207A31206AC1205C5C2A012
:10012F001203418F5812078EE558F4700302020B29
:10013F00E4F510F511850E0A850F0BE50D450C60E2
:10014F000302020BE55824F5601614602014602595
:10015F001460361460442405705112000E0201EF32
:10016F001206E9E51B151B7077151A807312050926
:10017F00120667806BE4F514F515F516F517F51AE9
:10018F00F51BC2A01206AC8057C374019509F5097F
:10019F00E49508F50812041F8046C374019511F504
:1001AF0011E49510F51012078E8035AD1BE4FF1288
:1001BF000723E50964014508700B7BFF7A0279B3C9
:1001CF001206428005AF581207DAAF58E51B25E03B
:1001DF00241CF8760008A607051BE51B7002051AFC
:1001EF00E51BB4FF0AE51AB4FF05E4F51AF51BE5A4
:1001FF001B6411451A7005F51A751B10E50B150BCD
:10020F007002150AE50B450A600302012FF5107500
:02021F001101CB
:0302210002012FA8
:10068A002020202020202020202020202000494E29
:10069A0050495554494E472E2E2E202020202020E6
:0206AA0020002E
:0F053C00C2B6C2B78F907F027E0012054BD2B7B6
:10054B00E4FDFCC3ED9FEC9E5015E4FBFA0BBB00E6
:0F055B00010AEB64704A70F50DBD00010C80E4DD
:01056A00226E
:08081100C2B512053CC2B7227A
:08081900D2B512053CC2B72262
:100723008F60A905E5607007E92480FF120811E5D1
:0C07330060B40107E924C0FF1208112285
:100642008B608A618962AB60AA61A96212077560D8
:10065200130562E5627002056114F9120775FF1253
:05066200081980E222EE
:1007A3007F381208117F0C1208117F061208117F7F
:0407B3000102081126
:050821007F0C0208112C
:050826007F080208112B
:1006AC00E4FDFF1207237BFF7A06798A120642E4E7
:0F06BC00FD7F011207237BFF7A06799802064221
:1007DA00EF2430F55BE4F55CFB7A00795B020642B4
:0B07F900E4F55ED2A2D2A1C2A1C2A210
:0108040022D1
:0B080500E4F55EC2A2C2A1D2A2D2A103
:0108100022C5
:10075B00E4FFD2A1C2A2D2A230A10A0FEFD394FA26
:09076B0040F67F0122C2A27F00CA
:010774002262
:1007B700E4F55CC2A2EF6004D2A18002C2A1D2A27A
:0207C700C2A2CC
:0107C900220D
:10070600E4FEF55EC2A2EF30E704D2A18002C2A1E8
:0C071600D2A2EF25E0FF0EBE08EAC2A24E
:0107220022B4
:10073F00E4F55CFFFEC2A2D2A2EE25E0FE30A103DB
:0B074F004306010FBF08EEC2A2AF0678
:01075A00227C
:1005F100AB07AA061207F97FA012070612075BAF25
:100601000312070612075BAF0512070612075B12FA
:0906110008057F0A7E0002054B7A
:0404D500AD07AC06BD
:1004D900E4FE1207F97FA012070612075BAF0512A7
:1004E900070612075B1207F97FA112070612075BBD
:0F04F90012073FAE077F011207B7120805AF06C3
:0105080022D0
:0E07EA00E4FFFE0FBF00010EBE01F8BFF4F5E4
:0107F80022DE
:1002C100020124E493A3F8E493A34003F68001F22E
:1002D10008DFF48029E493A3F85407240CC8C3333E
:1002E100C4540F4420C8834004F456800146F6DF0D
:1002F100E4800B01020408102040809003B6E47EE4
:10030100019360BCA3FF543F30E509541FFEE49301
:10031100A360010ECF54C025E060A840B8E493A3C8
:10032100FAE493A3F8E493A3C8C582C8CAC583CAF3
:10033100F0A3C8C582C8CAC583CADFE9DEE780BEAB
:01041E0000DD
:10077500BB010689828A83E0225002E722BBFE0282
:09078500E32289828A83E49322B5
:00000001FF
